{
  "_format": "hh-sol-artifact-1",
  "contractName": "MerkleTest",
  "sourceName": "contracts/MarkleTest.sol",
  "abi": [
    {
      "inputs": [],
      "stateMutability": "nonpayable",
      "type": "constructor"
    },
    {
      "inputs": [
        {
          "internalType": "address",
          "name": "addr",
          "type": "address"
        },
        {
          "internalType": "uint256",
          "name": "amount",
          "type": "uint256"
        },
        {
          "internalType": "bytes32",
          "name": "leaf",
          "type": "bytes32"
        }
      ],
      "name": "checkHash",
      "outputs": [
        {
          "internalType": "bool",
          "name": "",
          "type": "bool"
        }
      ],
      "stateMutability": "pure",
      "type": "function"
    },
    {
      "inputs": [
        {
          "internalType": "bytes32",
          "name": "root",
          "type": "bytes32"
        },
        {
          "internalType": "bytes32[]",
          "name": "proof",
          "type": "bytes32[]"
        },
        {
          "internalType": "address",
          "name": "addr",
          "type": "address"
        },
        {
          "internalType": "uint256",
          "name": "amount",
          "type": "uint256"
        }
      ],
      "name": "verify",
      "outputs": [
        {
          "internalType": "bool",
          "name": "",
          "type": "bool"
        }
      ],
      "stateMutability": "pure",
      "type": "function"
    }
  ],
  "bytecode": "0x608060405234801561001057600080fd5b50610746806100206000396000f3fe608060405234801561001057600080fd5b50600436106100365760003560e01c8063235019a01461003b578063cff144f71461006b575b600080fd5b610055600480360381019061005091906102f3565b61009b565b6040516100629190610361565b60405180910390f35b610085600480360381019061008091906104d5565b6100e1565b6040516100929190610361565b60405180910390f35b600083836040516020016100b09291906105c1565b6040516020818303038152906040528051906020012082036100d557600190506100da565b600090505b9392505050565b60008083836040516020016100f79291906105c1565b60405160208183030381529060405280519060200120905061011a858783610166565b610159576040517f08c379a00000000000000000000000000000000000000000000000000000000081526004016101509061064a565b60405180910390fd5b6001915050949350505050565b600082610173858461017d565b1490509392505050565b60008082905060005b84518110156101c8576101b3828683815181106101a6576101a561066a565b5b60200260200101516101d3565b915080806101c0906106c8565b915050610186565b508091505092915050565b60008183106101eb576101e682846101fe565b6101f6565b6101f583836101fe565b5b905092915050565b600082600052816020526040600020905092915050565b6000604051905090565b600080fd5b600080fd5b600073ffffffffffffffffffffffffffffffffffffffff82169050919050565b600061025482610229565b9050919050565b61026481610249565b811461026f57600080fd5b50565b6000813590506102818161025b565b92915050565b6000819050919050565b61029a81610287565b81146102a557600080fd5b50565b6000813590506102b781610291565b92915050565b6000819050919050565b6102d0816102bd565b81146102db57600080fd5b50565b6000813590506102ed816102c7565b92915050565b60008060006060848603121561030c5761030b61021f565b5b600061031a86828701610272565b935050602061032b868287016102a8565b925050604061033c868287016102de565b9150509250925092565b60008115159050919050565b61035b81610346565b82525050565b60006020820190506103766000830184610352565b92915050565b600080fd5b6000601f19601f8301169050919050565b7f4e487b7100000000000000000000000000000000000000000000000000000000600052604160045260246000fd5b6103ca82610381565b810181811067ffffffffffffffff821117156103e9576103e8610392565b5b80604052505050565b60006103fc610215565b905061040882826103c1565b919050565b600067ffffffffffffffff82111561042857610427610392565b5b602082029050602081019050919050565b600080fd5b600061045161044c8461040d565b6103f2565b9050808382526020820190506020840283018581111561047457610473610439565b5b835b8181101561049d578061048988826102de565b845260208401935050602081019050610476565b5050509392505050565b600082601f8301126104bc576104bb61037c565b5b81356104cc84826020860161043e565b91505092915050565b600080600080608085870312156104ef576104ee61021f565b5b60006104fd878288016102de565b945050602085013567ffffffffffffffff81111561051e5761051d610224565b5b61052a878288016104a7565b935050604061053b87828801610272565b925050606061054c878288016102a8565b91505092959194509250565b60008160601b9050919050565b600061057082610558565b9050919050565b600061058282610565565b9050919050565b61059a61059582610249565b610577565b82525050565b6000819050919050565b6105bb6105b682610287565b6105a0565b82525050565b60006105cd8285610589565b6014820191506105dd82846105aa565b6020820191508190509392505050565b600082825260208201905092915050565b7f496e76616c69642070726f6f6600000000000000000000000000000000000000600082015250565b6000610634600d836105ed565b915061063f826105fe565b602082019050919050565b6000602082019050818103600083015261066381610627565b9050919050565b7f4e487b7100000000000000000000000000000000000000000000000000000000600052603260045260246000fd5b7f4e487b7100000000000000000000000000000000000000000000000000000000600052601160045260246000fd5b60006106d382610287565b91507fffffffffffffffffffffffffffffffffffffffffffffffffffffffffffffffff820361070557610704610699565b5b60018201905091905056fea264697066735822122050b96d7327bce5cafdcad09d6bf4040589b8e524cb1df74ce30b967f22603d8f64736f6c63430008120033",
  "linkReferences": {},
  "deployedLinkReferences": {}
}